{
  "address": "0x5005A743875A50F80C306d3A6cfAC1C000623658",
  "abi": [
    {
      "inputs": [
        {
          "internalType": "address",
          "name": "_owner",
          "type": "address"
        },
        {
          "internalType": "address",
          "name": "_avatar",
          "type": "address"
        },
        {
          "internalType": "address",
          "name": "_target",
          "type": "address"
        },
        {
          "internalType": "contract RealitioV3",
          "name": "_oracle",
          "type": "address"
        },
        {
          "internalType": "uint32",
          "name": "timeout",
          "type": "uint32"
        },
        {
          "internalType": "uint32",
          "name": "cooldown",
          "type": "uint32"
        },
        {
          "internalType": "uint32",
          "name": "expiration",
          "type": "uint32"
        },
        {
          "internalType": "uint256",
          "name": "bond",
          "type": "uint256"
        },
        {
          "internalType": "uint256",
          "name": "templateId",
          "type": "uint256"
        },
        {
          "internalType": "address",
          "name": "arbitrator",
          "type": "address"
        }
      ],
      "stateMutability": "nonpayable",
      "type": "constructor"
    },
    {
      "anonymous": false,
      "inputs": [
        {
          "indexed": true,
          "internalType": "address",
          "name": "previousAvatar",
          "type": "address"
        },
        {
          "indexed": true,
          "internalType": "address",
          "name": "newAvatar",
          "type": "address"
        }
      ],
      "name": "AvatarSet",
      "type": "event"
    },
    {
      "anonymous": false,
      "inputs": [
        {
          "indexed": false,
          "internalType": "address",
          "name": "guard",
          "type": "address"
        }
      ],
      "name": "ChangedGuard",
      "type": "event"
    },
    {
      "anonymous": false,
      "inputs": [
        {
          "indexed": false,
          "internalType": "contract RealitioV3",
          "name": "oracle",
          "type": "address"
        }
      ],
      "name": "OracleSet",
      "type": "event"
    },
    {
      "anonymous": false,
      "inputs": [
        {
          "indexed": true,
          "internalType": "address",
          "name": "previousOwner",
          "type": "address"
        },
        {
          "indexed": true,
          "internalType": "address",
          "name": "newOwner",
          "type": "address"
        }
      ],
      "name": "OwnershipTransferred",
      "type": "event"
    },
    {
      "anonymous": false,
      "inputs": [
        {
          "indexed": false,
          "internalType": "string",
          "name": "proposalId",
          "type": "string"
        },
        {
          "indexed": false,
          "internalType": "bytes32",
          "name": "txHash",
          "type": "bytes32"
        },
        {
          "indexed": false,
          "internalType": "uint256",
          "name": "txIndex",
          "type": "uint256"
        }
      ],
      "name": "ProposalExecuted",
      "type": "event"
    },
    {
      "anonymous": false,
      "inputs": [
        {
          "indexed": true,
          "internalType": "bytes32",
          "name": "questionId",
          "type": "bytes32"
        },
        {
          "indexed": true,
          "internalType": "string",
          "name": "proposalId",
          "type": "string"
        }
      ],
      "name": "ProposalQuestionCreated",
      "type": "event"
    },
    {
      "anonymous": false,
      "inputs": [
        {
          "indexed": true,
          "internalType": "address",
          "name": "initiator",
          "type": "address"
        },
        {
          "indexed": true,
          "internalType": "address",
          "name": "owner",
          "type": "address"
        },
        {
          "indexed": true,
          "internalType": "address",
          "name": "avatar",
          "type": "address"
        },
        {
          "indexed": false,
          "internalType": "address",
          "name": "target",
          "type": "address"
        }
      ],
      "name": "RealityModuleSetup",
      "type": "event"
    },
    {
      "anonymous": false,
      "inputs": [
        {
          "indexed": false,
          "internalType": "uint32",
          "name": "answerExpiration",
          "type": "uint32"
        }
      ],
      "name": "SetAnswerExpiration",
      "type": "event"
    },
    {
      "anonymous": false,
      "inputs": [
        {
          "indexed": true,
          "internalType": "address",
          "name": "questionArbitrator",
          "type": "address"
        }
      ],
      "name": "SetArbitrator",
      "type": "event"
    },
    {
      "anonymous": false,
      "inputs": [
        {
          "indexed": false,
          "internalType": "uint256",
          "name": "minimumBond",
          "type": "uint256"
        }
      ],
      "name": "SetMinimumBond",
      "type": "event"
    },
    {
      "anonymous": false,
      "inputs": [
        {
          "indexed": false,
          "internalType": "uint32",
          "name": "questionCooldown",
          "type": "uint32"
        }
      ],
      "name": "SetQuestionCooldown",
      "type": "event"
    },
    {
      "anonymous": false,
      "inputs": [
        {
          "indexed": false,
          "internalType": "uint32",
          "name": "questionTimeout",
          "type": "uint32"
        }
      ],
      "name": "SetQuestionTimeout",
      "type": "event"
    },
    {
      "anonymous": false,
      "inputs": [
        {
          "indexed": false,
          "internalType": "uint256",
          "name": "templateId",
          "type": "uint256"
        }
      ],
      "name": "SetTemplate",
      "type": "event"
    },
    {
      "anonymous": false,
      "inputs": [
        {
          "indexed": true,
          "internalType": "address",
          "name": "previousTarget",
          "type": "address"
        },
        {
          "indexed": true,
          "internalType": "address",
          "name": "newTarget",
          "type": "address"
        }
      ],
      "name": "TargetSet",
      "type": "event"
    },
    {
      "inputs": [],
      "name": "DOMAIN_SEPARATOR_TYPEHASH",
      "outputs": [
        {
          "internalType": "bytes32",
          "name": "",
          "type": "bytes32"
        }
      ],
      "stateMutability": "view",
      "type": "function"
    },
    {
      "inputs": [],
      "name": "INVALIDATED",
      "outputs": [
        {
          "internalType": "bytes32",
          "name": "",
          "type": "bytes32"
        }
      ],
      "stateMutability": "view",
      "type": "function"
    },
    {
      "inputs": [],
      "name": "TRANSACTION_TYPEHASH",
      "outputs": [
        {
          "internalType": "bytes32",
          "name": "",
          "type": "bytes32"
        }
      ],
      "stateMutability": "view",
      "type": "function"
    },
    {
      "inputs": [
        {
          "internalType": "string",
          "name": "proposalId",
          "type": "string"
        },
        {
          "internalType": "bytes32[]",
          "name": "txHashes",
          "type": "bytes32[]"
        }
      ],
      "name": "addProposal",
      "outputs": [],
      "stateMutability": "nonpayable",
      "type": "function"
    },
    {
      "inputs": [
        {
          "internalType": "string",
          "name": "proposalId",
          "type": "string"
        },
        {
          "internalType": "bytes32[]",
          "name": "txHashes",
          "type": "bytes32[]"
        },
        {
          "internalType": "uint256",
          "name": "nonce",
          "type": "uint256"
        }
      ],
      "name": "addProposalWithNonce",
      "outputs": [],
      "stateMutability": "nonpayable",
      "type": "function"
    },
    {
      "inputs": [],
      "name": "answerExpiration",
      "outputs": [
        {
          "internalType": "uint32",
          "name": "",
          "type": "uint32"
        }
      ],
      "stateMutability": "view",
      "type": "function"
    },
    {
      "inputs": [],
      "name": "avatar",
      "outputs": [
        {
          "internalType": "address",
          "name": "",
          "type": "address"
        }
      ],
      "stateMutability": "view",
      "type": "function"
    },
    {
      "inputs": [
        {
          "internalType": "string",
          "name": "proposalId",
          "type": "string"
        },
        {
          "internalType": "bytes32[]",
          "name": "txHashes",
          "type": "bytes32[]"
        }
      ],
      "name": "buildQuestion",
      "outputs": [
        {
          "internalType": "string",
          "name": "",
          "type": "string"
        }
      ],
      "stateMutability": "pure",
      "type": "function"
    },
    {
      "inputs": [
        {
          "internalType": "string",
          "name": "proposalId",
          "type": "string"
        },
        {
          "internalType": "bytes32[]",
          "name": "txHashes",
          "type": "bytes32[]"
        },
        {
          "internalType": "address",
          "name": "to",
          "type": "address"
        },
        {
          "internalType": "uint256",
          "name": "value",
          "type": "uint256"
        },
        {
          "internalType": "bytes",
          "name": "data",
          "type": "bytes"
        },
        {
          "internalType": "enum Enum.Operation",
          "name": "operation",
          "type": "uint8"
        }
      ],
      "name": "executeProposal",
      "outputs": [],
      "stateMutability": "nonpayable",
      "type": "function"
    },
    {
      "inputs": [
        {
          "internalType": "string",
          "name": "proposalId",
          "type": "string"
        },
        {
          "internalType": "bytes32[]",
          "name": "txHashes",
          "type": "bytes32[]"
        },
        {
          "internalType": "address",
          "name": "to",
          "type": "address"
        },
        {
          "internalType": "uint256",
          "name": "value",
          "type": "uint256"
        },
        {
          "internalType": "bytes",
          "name": "data",
          "type": "bytes"
        },
        {
          "internalType": "enum Enum.Operation",
          "name": "operation",
          "type": "uint8"
        },
        {
          "internalType": "uint256",
          "name": "txIndex",
          "type": "uint256"
        }
      ],
      "name": "executeProposalWithIndex",
      "outputs": [],
      "stateMutability": "nonpayable",
      "type": "function"
    },
    {
      "inputs": [
        {
          "internalType": "bytes32",
          "name": "",
          "type": "bytes32"
        },
        {
          "internalType": "bytes32",
          "name": "",
          "type": "bytes32"
        }
      ],
      "name": "executedProposalTransactions",
      "outputs": [
        {
          "internalType": "bool",
          "name": "",
          "type": "bool"
        }
      ],
      "stateMutability": "view",
      "type": "function"
    },
    {
      "inputs": [
        {
          "internalType": "address",
          "name": "to",
          "type": "address"
        },
        {
          "internalType": "uint256",
          "name": "value",
          "type": "uint256"
        },
        {
          "internalType": "bytes",
          "name": "data",
          "type": "bytes"
        },
        {
          "internalType": "enum Enum.Operation",
          "name": "operation",
          "type": "uint8"
        },
        {
          "internalType": "uint256",
          "name": "nonce",
          "type": "uint256"
        }
      ],
      "name": "generateTransactionHashData",
      "outputs": [
        {
          "internalType": "bytes",
          "name": "",
          "type": "bytes"
        }
      ],
      "stateMutability": "view",
      "type": "function"
    },
    {
      "inputs": [],
      "name": "getChainId",
      "outputs": [
        {
          "internalType": "uint256",
          "name": "",
          "type": "uint256"
        }
      ],
      "stateMutability": "view",
      "type": "function"
    },
    {
      "inputs": [],
      "name": "getGuard",
      "outputs": [
        {
          "internalType": "address",
          "name": "_guard",
          "type": "address"
        }
      ],
      "stateMutability": "view",
      "type": "function"
    },
    {
      "inputs": [
        {
          "internalType": "string",
          "name": "question",
          "type": "string"
        },
        {
          "internalType": "uint256",
          "name": "nonce",
          "type": "uint256"
        }
      ],
      "name": "getQuestionId",
      "outputs": [
        {
          "internalType": "bytes32",
          "name": "",
          "type": "bytes32"
        }
      ],
      "stateMutability": "view",
      "type": "function"
    },
    {
      "inputs": [
        {
          "internalType": "address",
          "name": "to",
          "type": "address"
        },
        {
          "internalType": "uint256",
          "name": "value",
          "type": "uint256"
        },
        {
          "internalType": "bytes",
          "name": "data",
          "type": "bytes"
        },
        {
          "internalType": "enum Enum.Operation",
          "name": "operation",
          "type": "uint8"
        },
        {
          "internalType": "uint256",
          "name": "nonce",
          "type": "uint256"
        }
      ],
      "name": "getTransactionHash",
      "outputs": [
        {
          "internalType": "bytes32",
          "name": "",
          "type": "bytes32"
        }
      ],
      "stateMutability": "view",
      "type": "function"
    },
    {
      "inputs": [],
      "name": "guard",
      "outputs": [
        {
          "internalType": "address",
          "name": "",
          "type": "address"
        }
      ],
      "stateMutability": "view",
      "type": "function"
    },
    {
      "inputs": [
        {
          "internalType": "string",
          "name": "proposalId",
          "type": "string"
        },
        {
          "internalType": "bytes32[]",
          "name": "txHashes",
          "type": "bytes32[]"
        }
      ],
      "name": "markProposalAsInvalid",
      "outputs": [],
      "stateMutability": "nonpayable",
      "type": "function"
    },
    {
      "inputs": [
        {
          "internalType": "bytes32",
          "name": "questionHash",
          "type": "bytes32"
        }
      ],
      "name": "markProposalAsInvalidByHash",
      "outputs": [],
      "stateMutability": "nonpayable",
      "type": "function"
    },
    {
      "inputs": [
        {
          "internalType": "bytes32",
          "name": "questionHash",
          "type": "bytes32"
        }
      ],
      "name": "markProposalWithExpiredAnswerAsInvalid",
      "outputs": [],
      "stateMutability": "nonpayable",
      "type": "function"
    },
    {
      "inputs": [],
      "name": "minimumBond",
      "outputs": [
        {
          "internalType": "uint256",
          "name": "",
          "type": "uint256"
        }
      ],
      "stateMutability": "view",
      "type": "function"
    },
    {
      "inputs": [],
      "name": "oracle",
      "outputs": [
        {
          "internalType": "contract RealitioV3",
          "name": "",
          "type": "address"
        }
      ],
      "stateMutability": "view",
      "type": "function"
    },
    {
      "inputs": [],
      "name": "owner",
      "outputs": [
        {
          "internalType": "address",
          "name": "",
          "type": "address"
        }
      ],
      "stateMutability": "view",
      "type": "function"
    },
    {
      "inputs": [],
      "name": "questionArbitrator",
      "outputs": [
        {
          "internalType": "address",
          "name": "",
          "type": "address"
        }
      ],
      "stateMutability": "view",
      "type": "function"
    },
    {
      "inputs": [],
      "name": "questionCooldown",
      "outputs": [
        {
          "internalType": "uint32",
          "name": "",
          "type": "uint32"
        }
      ],
      "stateMutability": "view",
      "type": "function"
    },
    {
      "inputs": [
        {
          "internalType": "bytes32",
          "name": "",
          "type": "bytes32"
        }
      ],
      "name": "questionIds",
      "outputs": [
        {
          "internalType": "bytes32",
          "name": "",
          "type": "bytes32"
        }
      ],
      "stateMutability": "view",
      "type": "function"
    },
    {
      "inputs": [],
      "name": "questionTimeout",
      "outputs": [
        {
          "internalType": "uint32",
          "name": "",
          "type": "uint32"
        }
      ],
      "stateMutability": "view",
      "type": "function"
    },
    {
      "inputs": [],
      "name": "renounceOwnership",
      "outputs": [],
      "stateMutability": "nonpayable",
      "type": "function"
    },
    {
      "inputs": [
        {
          "internalType": "uint32",
          "name": "expiration",
          "type": "uint32"
        }
      ],
      "name": "setAnswerExpiration",
      "outputs": [],
      "stateMutability": "nonpayable",
      "type": "function"
    },
    {
      "inputs": [
        {
          "internalType": "address",
          "name": "arbitrator",
          "type": "address"
        }
      ],
      "name": "setArbitrator",
      "outputs": [],
      "stateMutability": "nonpayable",
      "type": "function"
    },
    {
      "inputs": [
        {
          "internalType": "address",
          "name": "_avatar",
          "type": "address"
        }
      ],
      "name": "setAvatar",
      "outputs": [],
      "stateMutability": "nonpayable",
      "type": "function"
    },
    {
      "inputs": [
        {
          "internalType": "address",
          "name": "_guard",
          "type": "address"
        }
      ],
      "name": "setGuard",
      "outputs": [],
      "stateMutability": "nonpayable",
      "type": "function"
    },
    {
      "inputs": [
        {
          "internalType": "uint256",
          "name": "bond",
          "type": "uint256"
        }
      ],
      "name": "setMinimumBond",
      "outputs": [],
      "stateMutability": "nonpayable",
      "type": "function"
    },
    {
      "inputs": [
        {
          "internalType": "contract RealitioV3",
          "name": "_oracle",
          "type": "address"
        }
      ],
      "name": "setOracle",
      "outputs": [],
      "stateMutability": "nonpayable",
      "type": "function"
    },
    {
      "inputs": [
        {
          "internalType": "uint32",
          "name": "cooldown",
          "type": "uint32"
        }
      ],
      "name": "setQuestionCooldown",
      "outputs": [],
      "stateMutability": "nonpayable",
      "type": "function"
    },
    {
      "inputs": [
        {
          "internalType": "uint32",
          "name": "timeout",
          "type": "uint32"
        }
      ],
      "name": "setQuestionTimeout",
      "outputs": [],
      "stateMutability": "nonpayable",
      "type": "function"
    },
    {
      "inputs": [
        {
          "internalType": "address",
          "name": "_target",
          "type": "address"
        }
      ],
      "name": "setTarget",
      "outputs": [],
      "stateMutability": "nonpayable",
      "type": "function"
    },
    {
      "inputs": [
        {
          "internalType": "uint256",
          "name": "templateId",
          "type": "uint256"
        }
      ],
      "name": "setTemplate",
      "outputs": [],
      "stateMutability": "nonpayable",
      "type": "function"
    },
    {
      "inputs": [
        {
          "internalType": "bytes",
          "name": "initParams",
          "type": "bytes"
        }
      ],
      "name": "setUp",
      "outputs": [],
      "stateMutability": "nonpayable",
      "type": "function"
    },
    {
      "inputs": [],
      "name": "target",
      "outputs": [
        {
          "internalType": "address",
          "name": "",
          "type": "address"
        }
      ],
      "stateMutability": "view",
      "type": "function"
    },
    {
      "inputs": [],
      "name": "template",
      "outputs": [
        {
          "internalType": "uint256",
          "name": "",
          "type": "uint256"
        }
      ],
      "stateMutability": "view",
      "type": "function"
    },
    {
      "inputs": [
        {
          "internalType": "address",
          "name": "newOwner",
          "type": "address"
        }
      ],
      "name": "transferOwnership",
      "outputs": [],
      "stateMutability": "nonpayable",
      "type": "function"
    }
  ],
  "transactionHash": "0xa90f8bfda6eb24a5994973846a8d774168e1c4674ad3355cceab1c77bf6ccdc7",
  "args": [
    "0x9cA70B93CaE5576645F5F069524A9B9c3aef5006",
    "0xa192aBe4667FC4d11e46385902309cd7421997ed",
    "0xa192aBe4667FC4d11e46385902309cd7421997ed",
    "0x6F80C5cBCF9FbC2dA2F0675E56A5900BB70Df72f",
    60,
    0,
    0,
    "0",
    "0x000000000000000000000000000000000000000000000000000000000000009e",
    "0x6F80C5cBCF9FbC2dA2F0675E56A5900BB70Df72f"
  ],
  "numDeployments": 1,
  "solcInputHash": "d3ae14f1566f363cd18892b7aaca459b",
  "bytecode": "0x60806040523480156200001157600080fd5b50604051620074d4380380620074d4833981810160405281019062000037919062001431565b8989898989898989898960008a8a8a8a8a8a8a8a8a8a604051602001620000689a99989796959493929190620015c5565b60405160208183030381529060405290506200008a81620000a560201b60201c565b50505050505050505050505050505050505050505062001cf1565b6000806000806000806000806000808a806020019051810190620000ca9190620016ba565b9950995099509950995099509950995099509950620000ee6200034b60201b60201c565b600073ffffffffffffffffffffffffffffffffffffffff168973ffffffffffffffffffffffffffffffffffffffff160362000160576040517f08c379a0000000000000000000000000000000000000000000000000000000008152600401620001579062001811565b60405180910390fd5b600073ffffffffffffffffffffffffffffffffffffffff168873ffffffffffffffffffffffffffffffffffffffff1603620001d2576040517f08c379a0000000000000000000000000000000000000000000000000000000008152600401620001c99062001883565b60405180910390fd5b620001e3896200044a60201b60201c565b620001f4886200059f60201b60201c565b6200020587620006f460201b60201c565b62000216846200080060201b60201c565b62000227866200096a60201b60201c565b620002388562000af160201b60201c565b620002498162000c6160201b60201c565b6200025a8362000d7760201b60201c565b6200026b8262000e4960201b60201c565b6200027c8a62000f1b60201b60201c565b606660009054906101000a900473ffffffffffffffffffffffffffffffffffffffff1673ffffffffffffffffffffffffffffffffffffffff168a73ffffffffffffffffffffffffffffffffffffffff163373ffffffffffffffffffffffffffffffffffffffff167f8b8abdce7435e63696dbae9e46dc2ee5036195638ecfc5b45a3c45bcd7e3ed34606760009054906101000a900473ffffffffffffffffffffffffffffffffffffffff16604051620003369190620018a5565b60405180910390a45050505050505050505050565b600060019054906101000a900460ff168062000372575060008054906101000a900460ff16155b620003b4576040517f08c379a0000000000000000000000000000000000000000000000000000000008152600401620003ab9062001938565b60405180910390fd5b60008060019054906101000a900460ff16159050801562000405576001600060016101000a81548160ff02191690831515021790555060016000806101000a81548160ff0219169083151502179055505b620004156200103060201b60201c565b620004256200110f60201b60201c565b8015620004475760008060016101000a81548160ff0219169083151502179055505b50565b6200045a6200120e60201b60201c565b73ffffffffffffffffffffffffffffffffffffffff16620004806200121660201b60201c565b73ffffffffffffffffffffffffffffffffffffffff1614620004d9576040517f08c379a0000000000000000000000000000000000000000000000000000000008152600401620004d090620019aa565b60405180910390fd5b6000606660009054906101000a900473ffffffffffffffffffffffffffffffffffffffff16905081606660006101000a81548173ffffffffffffffffffffffffffffffffffffffff021916908373ffffffffffffffffffffffffffffffffffffffff1602179055508173ffffffffffffffffffffffffffffffffffffffff168173ffffffffffffffffffffffffffffffffffffffff167f52ae88b092de36f87fb43fe794eb1381023b9c1bce563a871154022c63dce34260405160405180910390a35050565b620005af6200120e60201b60201c565b73ffffffffffffffffffffffffffffffffffffffff16620005d56200121660201b60201c565b73ffffffffffffffffffffffffffffffffffffffff16146200062e576040517f08c379a00000000000000000000000000000000000000000000000000000000081526004016200062590620019aa565b60405180910390fd5b6000606760009054906101000a900473ffffffffffffffffffffffffffffffffffffffff16905081606760006101000a81548173ffffffffffffffffffffffffffffffffffffffff021916908373ffffffffffffffffffffffffffffffffffffffff1602179055508173ffffffffffffffffffffffffffffffffffffffff168173ffffffffffffffffffffffffffffffffffffffff167f90cc2f570a6eb594b1580ea3e41247d2d73a55281889e86bd4ec2fc29c7e62d660405160405180910390a35050565b620007046200120e60201b60201c565b73ffffffffffffffffffffffffffffffffffffffff166200072a6200121660201b60201c565b73ffffffffffffffffffffffffffffffffffffffff161462000783576040517f08c379a00000000000000000000000000000000000000000000000000000000081526004016200077a90620019aa565b60405180910390fd5b80606860006101000a81548173ffffffffffffffffffffffffffffffffffffffff021916908373ffffffffffffffffffffffffffffffffffffffff1602179055507f3f32684a32a11dabdbb8c0177de80aa3ae36a004d75210335b49e544e48cd0aa81604051620007f59190620019cc565b60405180910390a150565b620008106200120e60201b60201c565b73ffffffffffffffffffffffffffffffffffffffff16620008366200121660201b60201c565b73ffffffffffffffffffffffffffffffffffffffff16146200088f576040517f08c379a00000000000000000000000000000000000000000000000000000000081526004016200088690620019aa565b60405180910390fd5b60008163ffffffff161480620008cb5750603c606a60049054906101000a900463ffffffff1682620008c2919062001a18565b63ffffffff1610155b6200090d576040517f08c379a0000000000000000000000000000000000000000000000000000000008152600401620009049062001af3565b60405180910390fd5b80606a60086101000a81548163ffffffff021916908363ffffffff1602179055507f32a94fdb92dde8a69818755d3831122d81a708e01d680d91a5c50c694362f383816040516200095f919062001b15565b60405180910390a150565b6200097a6200120e60201b60201c565b73ffffffffffffffffffffffffffffffffffffffff16620009a06200121660201b60201c565b73ffffffffffffffffffffffffffffffffffffffff1614620009f9576040517f08c379a0000000000000000000000000000000000000000000000000000000008152600401620009f090620019aa565b60405180910390fd5b60008163ffffffff161162000a45576040517f08c379a000000000000000000000000000000000000000000000000000000000815260040162000a3c9062001b82565b60405180910390fd5b6301e133808163ffffffff161062000a94576040517f08c379a000000000000000000000000000000000000000000000000000000000815260040162000a8b9062001c1a565b60405180910390fd5b80606a60006101000a81548163ffffffff021916908363ffffffff1602179055507fc771b9c9d579a99b3c216a513759929fdd1f35d973700a471c1dd4555d0e5aed8160405162000ae6919062001b15565b60405180910390a150565b62000b016200120e60201b60201c565b73ffffffffffffffffffffffffffffffffffffffff1662000b276200121660201b60201c565b73ffffffffffffffffffffffffffffffffffffffff161462000b80576040517f08c379a000000000000000000000000000000000000000000000000000000000815260040162000b7790620019aa565b60405180910390fd5b6000606a60089054906101000a900463ffffffff16905060008163ffffffff16148062000bc15750603c828262000bb8919062001a18565b63ffffffff1610155b62000c03576040517f08c379a000000000000000000000000000000000000000000000000000000000815260040162000bfa9062001af3565b60405180910390fd5b81606a60046101000a81548163ffffffff021916908363ffffffff1602179055507f67c3b081276489a149b6f9026c8fd66126916044ad7094df81a7cb094b59361b8260405162000c55919062001b15565b60405180910390a15050565b62000c716200120e60201b60201c565b73ffffffffffffffffffffffffffffffffffffffff1662000c976200121660201b60201c565b73ffffffffffffffffffffffffffffffffffffffff161462000cf0576040517f08c379a000000000000000000000000000000000000000000000000000000000815260040162000ce790620019aa565b60405180910390fd5b80606a600c6101000a81548173ffffffffffffffffffffffffffffffffffffffff021916908373ffffffffffffffffffffffffffffffffffffffff1602179055508073ffffffffffffffffffffffffffffffffffffffff167f53910d8ecf7b5b828433963dea4325f13b37cbdbfd212f83cb73ec179a60e12160405160405180910390a250565b62000d876200120e60201b60201c565b73ffffffffffffffffffffffffffffffffffffffff1662000dad6200121660201b60201c565b73ffffffffffffffffffffffffffffffffffffffff161462000e06576040517f08c379a000000000000000000000000000000000000000000000000000000000815260040162000dfd90620019aa565b60405180910390fd5b80606b819055507fe312c25b0d68ceec94d683edcac66d7abbaeff017ca15b4a87384f8641ddb0da8160405162000e3e919062001c3c565b60405180910390a150565b62000e596200120e60201b60201c565b73ffffffffffffffffffffffffffffffffffffffff1662000e7f6200121660201b60201c565b73ffffffffffffffffffffffffffffffffffffffff161462000ed8576040517f08c379a000000000000000000000000000000000000000000000000000000000815260040162000ecf90620019aa565b60405180910390fd5b806069819055507f3b5033b8609583d8d3fe242c57c15f8c36441fa3b92515a3b5eeb45f445374098160405162000f10919062001c3c565b60405180910390a150565b62000f2b6200120e60201b60201c565b73ffffffffffffffffffffffffffffffffffffffff1662000f516200121660201b60201c565b73ffffffffffffffffffffffffffffffffffffffff161462000faa576040517f08c379a000000000000000000000000000000000000000000000000000000000815260040162000fa190620019aa565b60405180910390fd5b600073ffffffffffffffffffffffffffffffffffffffff168173ffffffffffffffffffffffffffffffffffffffff16036200101c576040517f08c379a0000000000000000000000000000000000000000000000000000000008152600401620010139062001ccf565b60405180910390fd5b6200102d816200124060201b60201c565b50565b600060019054906101000a900460ff168062001057575060008054906101000a900460ff16155b62001099576040517f08c379a0000000000000000000000000000000000000000000000000000000008152600401620010909062001938565b60405180910390fd5b60008060019054906101000a900460ff161590508015620010ea576001600060016101000a81548160ff02191690831515021790555060016000806101000a81548160ff0219169083151502179055505b80156200110c5760008060016101000a81548160ff0219169083151502179055505b50565b600060019054906101000a900460ff168062001136575060008054906101000a900460ff16155b62001178576040517f08c379a00000000000000000000000000000000000000000000000000000000081526004016200116f9062001938565b60405180910390fd5b60008060019054906101000a900460ff161590508015620011c9576001600060016101000a81548160ff02191690831515021790555060016000806101000a81548160ff0219169083151502179055505b620011e9620011dd6200120e60201b60201c565b6200124060201b60201c565b80156200120b5760008060016101000a81548160ff0219169083151502179055505b50565b600033905090565b6000603360009054906101000a900473ffffffffffffffffffffffffffffffffffffffff16905090565b6000603360009054906101000a900473ffffffffffffffffffffffffffffffffffffffff16905081603360006101000a81548173ffffffffffffffffffffffffffffffffffffffff021916908373ffffffffffffffffffffffffffffffffffffffff1602179055508173ffffffffffffffffffffffffffffffffffffffff168173ffffffffffffffffffffffffffffffffffffffff167f8be0079c531659141344cd1fd0a4f28419497f9722a3daafe3b4186f6b6457e060405160405180910390a35050565b600080fd5b600073ffffffffffffffffffffffffffffffffffffffff82169050919050565b600062001338826200130b565b9050919050565b6200134a816200132b565b81146200135657600080fd5b50565b6000815190506200136a816200133f565b92915050565b60006200137d826200132b565b9050919050565b6200138f8162001370565b81146200139b57600080fd5b50565b600081519050620013af8162001384565b92915050565b600063ffffffff82169050919050565b620013d081620013b5565b8114620013dc57600080fd5b50565b600081519050620013f081620013c5565b92915050565b6000819050919050565b6200140b81620013f6565b81146200141757600080fd5b50565b6000815190506200142b8162001400565b92915050565b6000806000806000806000806000806101408b8d03121562001458576200145762001306565b5b6000620014688d828e0162001359565b9a505060206200147b8d828e0162001359565b99505060406200148e8d828e0162001359565b9850506060620014a18d828e016200139e565b9750506080620014b48d828e01620013df565b96505060a0620014c78d828e01620013df565b95505060c0620014da8d828e01620013df565b94505060e0620014ed8d828e016200141a565b935050610100620015018d828e016200141a565b925050610120620015158d828e0162001359565b9150509295989b9194979a5092959850565b62001532816200132b565b82525050565b6000819050919050565b6000620015636200155d62001557846200130b565b62001538565b6200130b565b9050919050565b6000620015778262001542565b9050919050565b60006200158b826200156a565b9050919050565b6200159d816200157e565b82525050565b620015ae81620013b5565b82525050565b620015bf81620013f6565b82525050565b600061014082019050620015dd600083018d62001527565b620015ec602083018c62001527565b620015fb604083018b62001527565b6200160a606083018a62001592565b620016196080830189620015a3565b6200162860a0830188620015a3565b6200163760c0830187620015a3565b6200164660e0830186620015b4565b62001656610100830185620015b4565b6200166661012083018462001527565b9b9a5050505050505050505050565b600062001682826200130b565b9050919050565b620016948162001675565b8114620016a057600080fd5b50565b600081519050620016b48162001689565b92915050565b6000806000806000806000806000806101408b8d031215620016e157620016e062001306565b5b6000620016f18d828e01620016a3565b9a50506020620017048d828e01620016a3565b9950506040620017178d828e01620016a3565b98505060606200172a8d828e016200139e565b97505060806200173d8d828e01620013df565b96505060a0620017508d828e01620013df565b95505060c0620017638d828e01620013df565b94505060e0620017768d828e016200141a565b9350506101006200178a8d828e016200141a565b9250506101206200179e8d828e01620016a3565b9150509295989b9194979a5092959850565b600082825260208201905092915050565b7f4176617461722063616e206e6f74206265207a65726f20616464726573730000600082015250565b6000620017f9601e83620017b0565b91506200180682620017c1565b602082019050919050565b600060208201905081810360008301526200182c81620017ea565b9050919050565b7f5461726765742063616e206e6f74206265207a65726f20616464726573730000600082015250565b60006200186b601e83620017b0565b9150620018788262001833565b602082019050919050565b600060208201905081810360008301526200189e816200185c565b9050919050565b6000602082019050620018bc600083018462001527565b92915050565b7f496e697469616c697a61626c653a20636f6e747261637420697320616c72656160008201527f647920696e697469616c697a6564000000000000000000000000000000000000602082015250565b600062001920602e83620017b0565b91506200192d82620018c2565b604082019050919050565b60006020820190508181036000830152620019538162001911565b9050919050565b7f4f776e61626c653a2063616c6c6572206973206e6f7420746865206f776e6572600082015250565b600062001992602083620017b0565b91506200199f826200195a565b602082019050919050565b60006020820190508181036000830152620019c58162001983565b9050919050565b6000602082019050620019e3600083018462001592565b92915050565b7f4e487b7100000000000000000000000000000000000000000000000000000000600052601160045260246000fd5b600062001a2582620013b5565b915062001a3283620013b5565b9250828203905063ffffffff81111562001a515762001a50620019e9565b5b92915050565b7f5468657265206e65656420746f206265206174206c656173742036307320626560008201527f747765656e20656e64206f6620636f6f6c646f776e20616e642065787069726160208201527f74696f6e00000000000000000000000000000000000000000000000000000000604082015250565b600062001adb604483620017b0565b915062001ae88262001a57565b606082019050919050565b6000602082019050818103600083015262001b0e8162001acc565b9050919050565b600060208201905062001b2c6000830184620015a3565b92915050565b7f54696d656f75742068617320746f206265206772656174657220300000000000600082015250565b600062001b6a601b83620017b0565b915062001b778262001b32565b602082019050919050565b6000602082019050818103600083015262001b9d8162001b5b565b9050919050565b7f74696d656f7574206d757374206265206c657373207468616e2033363520646160008201527f7973000000000000000000000000000000000000000000000000000000000000602082015250565b600062001c02602283620017b0565b915062001c0f8262001ba4565b604082019050919050565b6000602082019050818103600083015262001c358162001bf3565b9050919050565b600060208201905062001c536000830184620015b4565b92915050565b7f4f776e61626c653a206e6577206f776e657220697320746865207a65726f206160008201527f6464726573730000000000000000000000000000000000000000000000000000602082015250565b600062001cb7602683620017b0565b915062001cc48262001c59565b604082019050919050565b6000602082019050818103600083015262001cea8162001ca8565b9050919050565b6157d38062001d016000396000f3fe608060405234801561001057600080fd5b506004361061025e5760003560e01c80637adbf97311610146578063b5a73e75116100c3578063d4b8399211610087578063d4b83992146106c1578063dc89a198146106df578063e19a9dd91461070f578063e319044b1461072b578063f2fde38b14610747578063ff0394eb146107635761025e565b8063b5a73e751461061b578063c910638914610639578063cc3b43b114610657578063cd3ef95114610687578063d07acb5b146106a35761025e565b80638dcd26611161010a5780638dcd26611461058d5780639a674ed1146105a9578063a4f9edbf146105c5578063aa7517e1146105e1578063b0eefabe146105ff5761025e565b80637adbf973146104f95780637ceab3b1146105155780637dc0d1d01461053357806388633b7b146105515780638da5cb5b1461056f5761025e565b806339eafa6f116101df5780635aef7de6116101a35780635aef7de61461045f5780635fc1188d1461047d5780636775ef69146104995780636f2ddd93146104b5578063715018a6146104d3578063776d1a01146104dd5761025e565b806339eafa6f146103975780633ea3c146146103c7578063425a2a3c146103e357806345c7980e146104135780634e1b83741461042f5761025e565b80631db61b54116102265780631db61b54146102f357806321e314cb146103115780632351a8771461032d5780632b500041146103495780633408e470146103795761025e565b8063086cfca8146102635780631138a87e1461027f57806314604b8c1461029b57806314f5a395146102b75780631ba18b9b146102d5575b600080fd5b61027d600480360381019061027891906132e6565b610781565b005b6102996004803603810190610294919061358d565b6108c3565b005b6102b560048036038101906102b091906136de565b610b84565b005b6102bf61120c565b6040516102cc91906137f3565b60405180910390f35b6102dd611222565b6040516102ea91906137f3565b60405180910390f35b6102fb611238565b604051610308919061381d565b60405180910390f35b61032b60048036038101906103269190613864565b61125f565b005b61034760048036038101906103429190613891565b6113b4565b005b610363600480360381019061035e9190613972565b6113cc565b604051610370919061381d565b60405180910390f35b6103816113ed565b60405161038e9190613a18565b60405180910390f35b6103b160048036038101906103ac9190613a33565b6113fa565b6040516103be9190613b2a565b60405180910390f35b6103e160048036038101906103dc9190613b4c565b611462565b005b6103fd60048036038101906103f89190613972565b61151c565b60405161040a9190613bce565b60405180910390f35b61042d60048036038101906104289190613a33565b611617565b005b61044960048036038101906104449190613bf0565b611640565b6040516104569190613c4b565b60405180910390f35b61046761166f565b6040516104749190613c75565b60405180910390f35b61049760048036038101906104929190613c90565b611695565b005b6104b360048036038101906104ae9190613864565b611752565b005b6104bd6118be565b6040516104ca9190613a18565b60405180910390f35b6104db6118c4565b005b6104f760048036038101906104f291906132e6565b61194c565b005b610513600480360381019061050e9190613cfb565b611a8e565b005b61051d611b85565b60405161052a9190613c75565b60405180910390f35b61053b611bab565b6040516105489190613d87565b60405180910390f35b610559611bd1565b604051610566919061381d565b60405180910390f35b610577611bf8565b6040516105849190613c75565b60405180910390f35b6105a760048036038101906105a29190613a33565b611c22565b005b6105c360048036038101906105be9190613864565b611c32565b005b6105df60048036038101906105da9190613da2565b611d81565b005b6105e9611fc5565b6040516105f69190613a18565b60405180910390f35b610619600480360381019061061491906132e6565b611fcb565b005b6106236120ce565b6040516106309190613c75565b60405180910390f35b6106416120f4565b60405161064e9190613c75565b60405180910390f35b610671600480360381019061066c9190613deb565b61211e565b60405161067e919061381d565b60405180910390f35b6106a1600480360381019061069c9190613c90565b6121e5565b005b6106ab6122a2565b6040516106b891906137f3565b60405180910390f35b6106c96122b8565b6040516106d69190613c75565b60405180910390f35b6106f960048036038101906106f49190613b4c565b6122de565b604051610706919061381d565b60405180910390f35b610729600480360381019061072491906132e6565b6122f6565b005b61074560048036038101906107409190613b4c565b61251d565b005b610761600480360381019061075c91906132e6565b61285a565b005b61076b612951565b604051610778919061381d565b60405180910390f35b610789612978565b73ffffffffffffffffffffffffffffffffffffffff166107a7611bf8565b73ffffffffffffffffffffffffffffffffffffffff16146107fd576040517f08c379a00000000000000000000000000000000000000000000000000000000081526004016107f490613e93565b60405180910390fd5b6000606660009054906101000a900473ffffffffffffffffffffffffffffffffffffffff16905081606660006101000a81548173ffffffffffffffffffffffffffffffffffffffff021916908373ffffffffffffffffffffffffffffffffffffffff1602179055508173ffffffffffffffffffffffffffffffffffffffff168173ffffffffffffffffffffffffffffffffffffffff167f52ae88b092de36f87fb43fe794eb1381023b9c1bce563a871154022c63dce34260405160405180910390a35050565b60006108cf84846113fa565b90506000818051906020012090506000831115610a69576000606c60008381526020019081526020016000205490507fffffffffffffffffffffffffffffffffffffffffffffffffffffffffffffffff60001b8103610963576040517f08c379a000000000000000000000000000000000000000000000000000000000815260040161095a90613f25565b60405180910390fd5b7fffffffffffffffffffffffffffffffffffffffffffffffffffffffffffffffff60001b606860009054906101000a900473ffffffffffffffffffffffffffffffffffffffff1673ffffffffffffffffffffffffffffffffffffffff1663d09cc57e836040518263ffffffff1660e01b81526004016109e2919061381d565b602060405180830381865afa1580156109ff573d6000803e3d6000fd5b505050506040513d601f19601f82011682018060405250810190610a239190613f5a565b14610a63576040517f08c379a0000000000000000000000000000000000000000000000000000000008152600401610a5a90613ff9565b60405180910390fd5b50610ac2565b6000801b606c60008381526020019081526020016000205414610ac1576040517f08c379a0000000000000000000000000000000000000000000000000000000008152600401610ab89061408b565b60405180910390fd5b5b6000610ace838561211e565b905080606c6000848152602001908152602001600020819055506000610af48486612980565b9050808214610b38576040517f08c379a0000000000000000000000000000000000000000000000000000000008152600401610b2f906140f7565b60405180910390fd5b86604051610b469190614153565b6040518091039020817fa1f5047031a658827550a2c4be07648493f3ac88a09c857b3961d1336429a31f60405160405180910390a350505050505050565b6000610b9088886113fa565b8051906020012090506000606c60008381526020019081526020016000205490506000801b8103610bf6576040517f08c379a0000000000000000000000000000000000000000000000000000000008152600401610bed906141dc565b60405180910390fd5b7fffffffffffffffffffffffffffffffffffffffffffffffffffffffffffffffff60001b8103610c5b576040517f08c379a0000000000000000000000000000000000000000000000000000000008152600401610c5290614248565b60405180910390fd5b6000610c6a88888888886113cc565b905080898581518110610c8057610c7f614268565b5b602002602001015114610cc8576040517f08c379a0000000000000000000000000000000000000000000000000000000008152600401610cbf906142e3565b60405180910390fd5b600160001b606860009054906101000a900473ffffffffffffffffffffffffffffffffffffffff1673ffffffffffffffffffffffffffffffffffffffff1663d09cc57e846040518263ffffffff1660e01b8152600401610d28919061381d565b602060405180830381865afa158015610d45573d6000803e3d6000fd5b505050506040513d601f19601f82011682018060405250810190610d699190613f5a565b14610da9576040517f08c379a0000000000000000000000000000000000000000000000000000000008152600401610da09061434f565b60405180910390fd5b6000606b5490506000811480610e5a5750606860009054906101000a900473ffffffffffffffffffffffffffffffffffffffff1673ffffffffffffffffffffffffffffffffffffffff166326d6c97b846040518263ffffffff1660e01b8152600401610e15919061381d565b602060405180830381865afa158015610e32573d6000803e3d6000fd5b505050506040513d601f19601f82011682018060405250810190610e569190614384565b8111155b610e99576040517f08c379a0000000000000000000000000000000000000000000000000000000008152600401610e90906143fd565b60405180910390fd5b6000606860009054906101000a900473ffffffffffffffffffffffffffffffffffffffff1673ffffffffffffffffffffffffffffffffffffffff1663acae8f4e856040518263ffffffff1660e01b8152600401610ef6919061381d565b602060405180830381865afa158015610f13573d6000803e3d6000fd5b505050506040513d601f19601f82011682018060405250810190610f379190614432565b905042606a60049054906101000a900463ffffffff1663ffffffff168263ffffffff16610f64919061448e565b10610fa4576040517f08c379a0000000000000000000000000000000000000000000000000000000008152600401610f9b9061450e565b60405180910390fd5b6000606a60089054906101000a900463ffffffff16905060008163ffffffff161480610fe75750428163ffffffff168363ffffffff16610fe4919061448e565b10155b611026576040517f08c379a000000000000000000000000000000000000000000000000000000000815260040161101d9061457a565b60405180910390fd5b60008714806110895750606d600087815260200190815260200160002060008d60018a611053919061459a565b8151811061106457611063614268565b5b6020026020010151815260200190815260200160002060009054906101000a900460ff165b6110c8576040517f08c379a00000000000000000000000000000000000000000000000000000000081526004016110bf90614640565b60405180910390fd5b606d6000878152602001908152602001600020600085815260200190815260200160002060009054906101000a900460ff161561113a576040517f08c379a0000000000000000000000000000000000000000000000000000000008152600401611131906146ac565b60405180910390fd5b6001606d6000888152602001908152602001600020600086815260200190815260200160002060006101000a81548160ff0219169083151502179055506111838b8b8b8b612a6d565b6111c2576040517f08c379a00000000000000000000000000000000000000000000000000000000081526004016111b990614718565b60405180910390fd5b7fad3838e7eb1814c3b2c5a7688268692c060a82ebc5dff2627224e72b69a582098d85896040516111f593929190614738565b60405180910390a150505050505050505050505050565b606a60049054906101000a900463ffffffff1681565b606a60009054906101000a900463ffffffff1681565b7f47e79534a245952e8b16893a336b85a3d9ea9fa8c573f3d803afb92a7946921860001b81565b611267612978565b73ffffffffffffffffffffffffffffffffffffffff16611285611bf8565b73ffffffffffffffffffffffffffffffffffffffff16146112db576040517f08c379a00000000000000000000000000000000000000000000000000000000081526004016112d290613e93565b60405180910390fd5b6000606a60089054906101000a900463ffffffff16905060008163ffffffff1614806113195750603c82826113109190614776565b63ffffffff1610155b611358576040517f08c379a000000000000000000000000000000000000000000000000000000000815260040161134f90614846565b60405180910390fd5b81606a60046101000a81548163ffffffff021916908363ffffffff1602179055507f67c3b081276489a149b6f9026c8fd66126916044ad7094df81a7cb094b59361b826040516113a891906137f3565b60405180910390a15050565b6113c48686868686866000610b84565b505050505050565b60006113db868686868661151c565b80519060200120905095945050505050565b6000804690508091505090565b6060600061142d83604051602001611412919061491e565b60405160208183030381529060405280519060200120612d53565b90508362e2909f60e81b8260405160200161144a93929190614982565b60405160208183030381529060405291505092915050565b61146a612978565b73ffffffffffffffffffffffffffffffffffffffff16611488611bf8565b73ffffffffffffffffffffffffffffffffffffffff16146114de576040517f08c379a00000000000000000000000000000000000000000000000000000000081526004016114d590613e93565b60405180910390fd5b7fffffffffffffffffffffffffffffffffffffffffffffffffffffffffffffffff60001b606c60008381526020019081526020016000208190555050565b606060006115286113ed565b905060007f47e79534a245952e8b16893a336b85a3d9ea9fa8c573f3d803afb92a7946921860001b8230604051602001611564939291906149d8565b60405160208183030381529060405280519060200120905060007f72e9670a7ee00f5fbf1049b8c38e3f22fab7e9b85029e85cf9412f17fdd5c2ad60001b8989898051906020012089896040516020016115c396959493929190614a86565b604051602081830303815290604052805190602001209050601960f81b600160f81b83836040516020016115fa9493929190614b55565b604051602081830303815290604052935050505095945050505050565b600061162383836113fa565b905060008180519060200120905061163a81611462565b50505050565b606d6020528160005260406000206020528060005260406000206000915091509054906101000a900460ff1681565b606660009054906101000a900473ffffffffffffffffffffffffffffffffffffffff1681565b61169d612978565b73ffffffffffffffffffffffffffffffffffffffff166116bb611bf8565b73ffffffffffffffffffffffffffffffffffffffff1614611711576040517f08c379a000000000000000000000000000000000000000000000000000000000815260040161170890613e93565b60405180910390fd5b806069819055507f3b5033b8609583d8d3fe242c57c15f8c36441fa3b92515a3b5eeb45f44537409816040516117479190613a18565b60405180910390a150565b61175a612978565b73ffffffffffffffffffffffffffffffffffffffff16611778611bf8565b73ffffffffffffffffffffffffffffffffffffffff16146117ce576040517f08c379a00000000000000000000000000000000000000000000000000000000081526004016117c590613e93565b60405180910390fd5b60008163ffffffff1611611817576040517f08c379a000000000000000000000000000000000000000000000000000000000815260040161180e90614bef565b60405180910390fd5b6301e133808163ffffffff1610611863576040517f08c379a000000000000000000000000000000000000000000000000000000000815260040161185a90614c81565b60405180910390fd5b80606a60006101000a81548163ffffffff021916908363ffffffff1602179055507fc771b9c9d579a99b3c216a513759929fdd1f35d973700a471c1dd4555d0e5aed816040516118b391906137f3565b60405180910390a150565b60695481565b6118cc612978565b73ffffffffffffffffffffffffffffffffffffffff166118ea611bf8565b73ffffffffffffffffffffffffffffffffffffffff1614611940576040517f08c379a000000000000000000000000000000000000000000000000000000000815260040161193790613e93565b60405180910390fd5b61194a6000612ec6565b565b611954612978565b73ffffffffffffffffffffffffffffffffffffffff16611972611bf8565b73ffffffffffffffffffffffffffffffffffffffff16146119c8576040517f08c379a00000000000000000000000000000000000000000000000000000000081526004016119bf90613e93565b60405180910390fd5b6000606760009054906101000a900473ffffffffffffffffffffffffffffffffffffffff16905081606760006101000a81548173ffffffffffffffffffffffffffffffffffffffff021916908373ffffffffffffffffffffffffffffffffffffffff1602179055508173ffffffffffffffffffffffffffffffffffffffff168173ffffffffffffffffffffffffffffffffffffffff167f90cc2f570a6eb594b1580ea3e41247d2d73a55281889e86bd4ec2fc29c7e62d660405160405180910390a35050565b611a96612978565b73ffffffffffffffffffffffffffffffffffffffff16611ab4611bf8565b73ffffffffffffffffffffffffffffffffffffffff1614611b0a576040517f08c379a0000000000000000000000000000000000000000000000000000000008152600401611b0190613e93565b60405180910390fd5b80606860006101000a81548173ffffffffffffffffffffffffffffffffffffffff021916908373ffffffffffffffffffffffffffffffffffffffff1602179055507f3f32684a32a11dabdbb8c0177de80aa3ae36a004d75210335b49e544e48cd0aa81604051611b7a9190613d87565b60405180910390a150565b606560009054906101000a900473ffffffffffffffffffffffffffffffffffffffff1681565b606860009054906101000a900473ffffffffffffffffffffffffffffffffffffffff1681565b7f72e9670a7ee00f5fbf1049b8c38e3f22fab7e9b85029e85cf9412f17fdd5c2ad60001b81565b6000603360009054906101000a900473ffffffffffffffffffffffffffffffffffffffff16905090565b611c2e828260006108c3565b5050565b611c3a612978565b73ffffffffffffffffffffffffffffffffffffffff16611c58611bf8565b73ffffffffffffffffffffffffffffffffffffffff1614611cae576040517f08c379a0000000000000000000000000000000000000000000000000000000008152600401611ca590613e93565b60405180910390fd5b60008163ffffffff161480611ce75750603c606a60049054906101000a900463ffffffff1682611cde9190614776565b63ffffffff1610155b611d26576040517f08c379a0000000000000000000000000000000000000000000000000000000008152600401611d1d90614846565b60405180910390fd5b80606a60086101000a81548163ffffffff021916908363ffffffff1602179055507f32a94fdb92dde8a69818755d3831122d81a708e01d680d91a5c50c694362f38381604051611d7691906137f3565b60405180910390a150565b6000806000806000806000806000808a806020019051810190611da49190614cf4565b9950995099509950995099509950995099509950611dc0612f8c565b600073ffffffffffffffffffffffffffffffffffffffff168973ffffffffffffffffffffffffffffffffffffffff1603611e2f576040517f08c379a0000000000000000000000000000000000000000000000000000000008152600401611e2690614e1f565b60405180910390fd5b600073ffffffffffffffffffffffffffffffffffffffff168873ffffffffffffffffffffffffffffffffffffffff1603611e9e576040517f08c379a0000000000000000000000000000000000000000000000000000000008152600401611e9590614e8b565b60405180910390fd5b611ea789610781565b611eb08861194c565b611eb987611a8e565b611ec284611c32565b611ecb86611752565b611ed48561125f565b611edd81611fcb565b611ee6836121e5565b611eef82611695565b611ef88a61285a565b606660009054906101000a900473ffffffffffffffffffffffffffffffffffffffff1673ffffffffffffffffffffffffffffffffffffffff168a73ffffffffffffffffffffffffffffffffffffffff163373ffffffffffffffffffffffffffffffffffffffff167f8b8abdce7435e63696dbae9e46dc2ee5036195638ecfc5b45a3c45bcd7e3ed34606760009054906101000a900473ffffffffffffffffffffffffffffffffffffffff16604051611fb09190613c75565b60405180910390a45050505050505050505050565b606b5481565b611fd3612978565b73ffffffffffffffffffffffffffffffffffffffff16611ff1611bf8565b73ffffffffffffffffffffffffffffffffffffffff1614612047576040517f08c379a000000000000000000000000000000000000000000000000000000000815260040161203e90613e93565b60405180910390fd5b80606a600c6101000a81548173ffffffffffffffffffffffffffffffffffffffff021916908373ffffffffffffffffffffffffffffffffffffffff1602179055508073ffffffffffffffffffffffffffffffffffffffff167f53910d8ecf7b5b828433963dea4325f13b37cbdbfd212f83cb73ec179a60e12160405160405180910390a250565b606a600c9054906101000a900473ffffffffffffffffffffffffffffffffffffffff1681565b6000606560009054906101000a900473ffffffffffffffffffffffffffffffffffffffff16905090565b60008060695460008560405160200161213993929190614f02565b60405160208183030381529060405280519060200120905080606a600c9054906101000a900473ffffffffffffffffffffffffffffffffffffffff16606a60009054906101000a900463ffffffff16606b54606860009054906101000a900473ffffffffffffffffffffffffffffffffffffffff1630886040516020016121c69796959493929190614fb1565b6040516020818303038152906040528051906020012091505092915050565b6121ed612978565b73ffffffffffffffffffffffffffffffffffffffff1661220b611bf8565b73ffffffffffffffffffffffffffffffffffffffff1614612261576040517f08c379a000000000000000000000000000000000000000000000000000000000815260040161225890613e93565b60405180910390fd5b80606b819055507fe312c25b0d68ceec94d683edcac66d7abbaeff017ca15b4a87384f8641ddb0da816040516122979190613a18565b60405180910390a150565b606a60089054906101000a900463ffffffff1681565b606760009054906101000a900473ffffffffffffffffffffffffffffffffffffffff1681565b606c6020528060005260406000206000915090505481565b6122fe612978565b73ffffffffffffffffffffffffffffffffffffffff1661231c611bf8565b73ffffffffffffffffffffffffffffffffffffffff1614612372576040517f08c379a000000000000000000000000000000000000000000000000000000000815260040161236990613e93565b60405180910390fd5b600073ffffffffffffffffffffffffffffffffffffffff168173ffffffffffffffffffffffffffffffffffffffff1614612480578073ffffffffffffffffffffffffffffffffffffffff166301ffc9a77fe6d7a83a000000000000000000000000000000000000000000000000000000006040518263ffffffff1660e01b81526004016123ff919061506d565b602060405180830381865afa15801561241c573d6000803e3d6000fd5b505050506040513d601f19601f8201168201806040525081019061244091906150b4565b61247f576040517f08c379a00000000000000000000000000000000000000000000000000000000081526004016124769061512d565b60405180910390fd5b5b80606560006101000a81548173ffffffffffffffffffffffffffffffffffffffff021916908373ffffffffffffffffffffffffffffffffffffffff1602179055507f1151116914515bc0891ff9047a6cb32cf902546f83066499bcf8ba33d2353fa2606560009054906101000a900473ffffffffffffffffffffffffffffffffffffffff166040516125129190613c75565b60405180910390a150565b6000606a60089054906101000a900463ffffffff16905060008163ffffffff161161257d576040517f08c379a000000000000000000000000000000000000000000000000000000000815260040161257490615199565b60405180910390fd5b6000606c60008481526020019081526020016000205490507fffffffffffffffffffffffffffffffffffffffffffffffffffffffffffffffff60001b81036125fa576040517f08c379a00000000000000000000000000000000000000000000000000000000081526004016125f190615205565b60405180910390fd5b6000801b810361263f576040517f08c379a0000000000000000000000000000000000000000000000000000000008152600401612636906141dc565b60405180910390fd5b600160001b606860009054906101000a900473ffffffffffffffffffffffffffffffffffffffff1673ffffffffffffffffffffffffffffffffffffffff1663d09cc57e836040518263ffffffff1660e01b815260040161269f919061381d565b602060405180830381865afa1580156126bc573d6000803e3d6000fd5b505050506040513d601f19601f820116820180604052508101906126e09190613f5a565b14612720576040517f08c379a000000000000000000000000000000000000000000000000000000000815260040161271790615271565b60405180910390fd5b6000606860009054906101000a900473ffffffffffffffffffffffffffffffffffffffff1673ffffffffffffffffffffffffffffffffffffffff1663acae8f4e836040518263ffffffff1660e01b815260040161277d919061381d565b602060405180830381865afa15801561279a573d6000803e3d6000fd5b505050506040513d601f19601f820116820180604052508101906127be9190614432565b9050428363ffffffff168263ffffffff166127d9919061448e565b10612819576040517f08c379a0000000000000000000000000000000000000000000000000000000008152600401612810906152dd565b60405180910390fd5b7fffffffffffffffffffffffffffffffffffffffffffffffffffffffffffffffff60001b606c60008681526020019081526020016000208190555050505050565b612862612978565b73ffffffffffffffffffffffffffffffffffffffff16612880611bf8565b73ffffffffffffffffffffffffffffffffffffffff16146128d6576040517f08c379a00000000000000000000000000000000000000000000000000000000081526004016128cd90613e93565b60405180910390fd5b600073ffffffffffffffffffffffffffffffffffffffff168173ffffffffffffffffffffffffffffffffffffffff1603612945576040517f08c379a000000000000000000000000000000000000000000000000000000000815260040161293c9061536f565b60405180910390fd5b61294e81612ec6565b50565b7fffffffffffffffffffffffffffffffffffffffffffffffffffffffffffffffff60001b81565b600033905090565b6000606860009054906101000a900473ffffffffffffffffffffffffffffffffffffffff1673ffffffffffffffffffffffffffffffffffffffff1663484b93c460695485606a600c9054906101000a900473ffffffffffffffffffffffffffffffffffffffff16606a60009054906101000a900463ffffffff16600088606b546040518863ffffffff1660e01b8152600401612a2297969594939291906153ca565b6020604051808303816000875af1158015612a41573d6000803e3d6000fd5b505050506040513d601f19601f82011682018060405250810190612a659190613f5a565b905092915050565b60008073ffffffffffffffffffffffffffffffffffffffff16606560009054906101000a900473ffffffffffffffffffffffffffffffffffffffff1673ffffffffffffffffffffffffffffffffffffffff1614612b9f57606560009054906101000a900473ffffffffffffffffffffffffffffffffffffffff1673ffffffffffffffffffffffffffffffffffffffff166375f0bb528686868660008060008060006040518060400160405280600281526020017f307800000000000000000000000000000000000000000000000000000000000081525060006040518c63ffffffff1660e01b8152600401612b6c9b9a99989796959493929190615480565b600060405180830381600087803b158015612b8657600080fd5b505af1158015612b9a573d6000803e3d6000fd5b505050505b606760009054906101000a900473ffffffffffffffffffffffffffffffffffffffff1673ffffffffffffffffffffffffffffffffffffffff1663468721a7868686866040518563ffffffff1660e01b8152600401612c009493929190615539565b6020604051808303816000875af1158015612c1f573d6000803e3d6000fd5b505050506040513d601f19601f82011682018060405250810190612c4391906150b4565b9050600073ffffffffffffffffffffffffffffffffffffffff16606560009054906101000a900473ffffffffffffffffffffffffffffffffffffffff1673ffffffffffffffffffffffffffffffffffffffff1614612d4b57606560009054906101000a900473ffffffffffffffffffffffffffffffffffffffff1673ffffffffffffffffffffffffffffffffffffffff1663932713687f3078000000000000000000000000000000000000000000000000000000000000836040518363ffffffff1660e01b8152600401612d18929190615585565b600060405180830381600087803b158015612d3257600080fd5b505af1158015612d46573d6000803e3d6000fd5b505050505b949350505050565b60606000604067ffffffffffffffff811115612d7257612d7161332e565b5b6040519080825280601f01601f191660200182016040528015612da45781602001600182028036833780820191505090505b50905060005b6020811015612ebc576000600882612dc291906155ae565b85901b60f81c90506000601082612dd9919061562c565b90506000601083612dea919061565d565b9050612df582613075565b85856002612e0391906155ae565b81518110612e1457612e13614268565b5b60200101907effffffffffffffffffffffffffffffffffffffffffffffffffffffffffffff1916908160001a905350612e4c81613075565b856001866002612e5c91906155ae565b612e66919061448e565b81518110612e7757612e76614268565b5b60200101907effffffffffffffffffffffffffffffffffffffffffffffffffffffffffffff1916908160001a9053505050508080612eb49061568e565b915050612daa565b5080915050919050565b6000603360009054906101000a900473ffffffffffffffffffffffffffffffffffffffff16905081603360006101000a81548173ffffffffffffffffffffffffffffffffffffffff021916908373ffffffffffffffffffffffffffffffffffffffff1602179055508173ffffffffffffffffffffffffffffffffffffffff168173ffffffffffffffffffffffffffffffffffffffff167f8be0079c531659141344cd1fd0a4f28419497f9722a3daafe3b4186f6b6457e060405160405180910390a35050565b600060019054906101000a900460ff1680612fb2575060008054906101000a900460ff16155b612ff1576040517f08c379a0000000000000000000000000000000000000000000000000000000008152600401612fe890615748565b60405180910390fd5b60008060019054906101000a900460ff161590508015613041576001600060016101000a81548160ff02191690831515021790555060016000806101000a81548160ff0219169083151502179055505b6130496130b2565b61305161318b565b80156130725760008060016101000a81548160ff0219169083151502179055505b50565b6000600a8260ff16101561309a576030826130909190615768565b60f81b90506130ad565b6057826130a79190615768565b60f81b90505b919050565b600060019054906101000a900460ff16806130d8575060008054906101000a900460ff16155b613117576040517f08c379a000000000000000000000000000000000000000000000000000000000815260040161310e90615748565b60405180910390fd5b60008060019054906101000a900460ff161590508015613167576001600060016101000a81548160ff02191690831515021790555060016000806101000a81548160ff0219169083151502179055505b80156131885760008060016101000a81548160ff0219169083151502179055505b50565b600060019054906101000a900460ff16806131b1575060008054906101000a900460ff16155b6131f0576040517f08c379a00000000000000000000000000000000000000000000000000000000081526004016131e790615748565b60405180910390fd5b60008060019054906101000a900460ff161590508015613240576001600060016101000a81548160ff02191690831515021790555060016000806101000a81548160ff0219169083151502179055505b61325061324b612978565b612ec6565b80156132715760008060016101000a81548160ff0219169083151502179055505b50565b6000604051905090565b600080fd5b600080fd5b600073ffffffffffffffffffffffffffffffffffffffff82169050919050565b60006132b382613288565b9050919050565b6132c3816132a8565b81146132ce57600080fd5b50565b6000813590506132e0816132ba565b92915050565b6000602082840312156132fc576132fb61327e565b5b600061330a848285016132d1565b91505092915050565b600080fd5b600080fd5b6000601f19601f8301169050919050565b7f4e487b7100000000000000000000000000000000000000000000000000000000600052604160045260246000fd5b6133668261331d565b810181811067ffffffffffffffff821117156133855761338461332e565b5b80604052505050565b6000613398613274565b90506133a4828261335d565b919050565b600067ffffffffffffffff8211156133c4576133c361332e565b5b6133cd8261331d565b9050602081019050919050565b82818337600083830152505050565b60006133fc6133f7846133a9565b61338e565b90508281526020810184848401111561341857613417613318565b5b6134238482856133da565b509392505050565b600082601f8301126134405761343f613313565b5b81356134508482602086016133e9565b91505092915050565b600067ffffffffffffffff8211156134745761347361332e565b5b602082029050602081019050919050565b600080fd5b6000819050919050565b61349d8161348a565b81146134a857600080fd5b50565b6000813590506134ba81613494565b92915050565b60006134d36134ce84613459565b61338e565b905080838252602082019050602084028301858111156134f6576134f5613485565b5b835b8181101561351f578061350b88826134ab565b8452602084019350506020810190506134f8565b5050509392505050565b600082601f83011261353e5761353d613313565b5b813561354e8482602086016134c0565b91505092915050565b6000819050919050565b61356a81613557565b811461357557600080fd5b50565b60008135905061358781613561565b92915050565b6000806000606084860312156135a6576135a561327e565b5b600084013567ffffffffffffffff8111156135c4576135c3613283565b5b6135d08682870161342b565b935050602084013567ffffffffffffffff8111156135f1576135f0613283565b5b6135fd86828701613529565b925050604061360e86828701613578565b9150509250925092565b600067ffffffffffffffff8211156136335761363261332e565b5b61363c8261331d565b9050602081019050919050565b600061365c61365784613618565b61338e565b90508281526020810184848401111561367857613677613318565b5b6136838482856133da565b509392505050565b600082601f8301126136a05761369f613313565b5b81356136b0848260208601613649565b91505092915050565b600281106136c657600080fd5b50565b6000813590506136d8816136b9565b92915050565b600080600080600080600060e0888a0312156136fd576136fc61327e565b5b600088013567ffffffffffffffff81111561371b5761371a613283565b5b6137278a828b0161342b565b975050602088013567ffffffffffffffff81111561374857613747613283565b5b6137548a828b01613529565b96505060406137658a828b016132d1565b95505060606137768a828b01613578565b945050608088013567ffffffffffffffff81111561379757613796613283565b5b6137a38a828b0161368b565b93505060a06137b48a828b016136c9565b92505060c06137c58a828b01613578565b91505092959891949750929550565b600063ffffffff82169050919050565b6137ed816137d4565b82525050565b600060208201905061380860008301846137e4565b92915050565b6138178161348a565b82525050565b6000602082019050613832600083018461380e565b92915050565b613841816137d4565b811461384c57600080fd5b50565b60008135905061385e81613838565b92915050565b60006020828403121561387a5761387961327e565b5b60006138888482850161384f565b91505092915050565b60008060008060008060c087890312156138ae576138ad61327e565b5b600087013567ffffffffffffffff8111156138cc576138cb613283565b5b6138d889828a0161342b565b965050602087013567ffffffffffffffff8111156138f9576138f8613283565b5b61390589828a01613529565b955050604061391689828a016132d1565b945050606061392789828a01613578565b935050608087013567ffffffffffffffff81111561394857613947613283565b5b61395489828a0161368b565b92505060a061396589828a016136c9565b9150509295509295509295565b600080600080600060a0868803121561398e5761398d61327e565b5b600061399c888289016132d1565b95505060206139ad88828901613578565b945050604086013567ffffffffffffffff8111156139ce576139cd613283565b5b6139da8882890161368b565b93505060606139eb888289016136c9565b92505060806139fc88828901613578565b9150509295509295909350565b613a1281613557565b82525050565b6000602082019050613a2d6000830184613a09565b92915050565b60008060408385031215613a4a57613a4961327e565b5b600083013567ffffffffffffffff811115613a6857613a67613283565b5b613a748582860161342b565b925050602083013567ffffffffffffffff811115613a9557613a94613283565b5b613aa185828601613529565b9150509250929050565b600081519050919050565b600082825260208201905092915050565b60005b83811015613ae5578082015181840152602081019050613aca565b60008484015250505050565b6000613afc82613aab565b613b068185613ab6565b9350613b16818560208601613ac7565b613b1f8161331d565b840191505092915050565b60006020820190508181036000830152613b448184613af1565b905092915050565b600060208284031215613b6257613b6161327e565b5b6000613b70848285016134ab565b91505092915050565b600081519050919050565b600082825260208201905092915050565b6000613ba082613b79565b613baa8185613b84565b9350613bba818560208601613ac7565b613bc38161331d565b840191505092915050565b60006020820190508181036000830152613be88184613b95565b905092915050565b60008060408385031215613c0757613c0661327e565b5b6000613c15858286016134ab565b9250506020613c26858286016134ab565b9150509250929050565b60008115159050919050565b613c4581613c30565b82525050565b6000602082019050613c606000830184613c3c565b92915050565b613c6f816132a8565b82525050565b6000602082019050613c8a6000830184613c66565b92915050565b600060208284031215613ca657613ca561327e565b5b6000613cb484828501613578565b91505092915050565b6000613cc8826132a8565b9050919050565b613cd881613cbd565b8114613ce357600080fd5b50565b600081359050613cf581613ccf565b92915050565b600060208284031215613d1157613d1061327e565b5b6000613d1f84828501613ce6565b91505092915050565b6000819050919050565b6000613d4d613d48613d4384613288565b613d28565b613288565b9050919050565b6000613d5f82613d32565b9050919050565b6000613d7182613d54565b9050919050565b613d8181613d66565b82525050565b6000602082019050613d9c6000830184613d78565b92915050565b600060208284031215613db857613db761327e565b5b600082013567ffffffffffffffff811115613dd657613dd5613283565b5b613de28482850161368b565b91505092915050565b60008060408385031215613e0257613e0161327e565b5b600083013567ffffffffffffffff811115613e2057613e1f613283565b5b613e2c8582860161342b565b9250506020613e3d85828601613578565b9150509250929050565b7f4f776e61626c653a2063616c6c6572206973206e6f7420746865206f776e6572600082015250565b6000613e7d602083613ab6565b9150613e8882613e47565b602082019050919050565b60006020820190508181036000830152613eac81613e70565b9050919050565b7f546869732070726f706f73616c20686173206265656e206d61726b656420617360008201527f20696e76616c6964000000000000000000000000000000000000000000000000602082015250565b6000613f0f602883613ab6565b9150613f1a82613eb3565b604082019050919050565b60006020820190508181036000830152613f3e81613f02565b9050919050565b600081519050613f5481613494565b92915050565b600060208284031215613f7057613f6f61327e565b5b6000613f7e84828501613f45565b91505092915050565b7f50726576696f75732070726f706f73616c20776173206e6f7420696e76616c6960008201527f6461746564000000000000000000000000000000000000000000000000000000602082015250565b6000613fe3602583613ab6565b9150613fee82613f87565b604082019050919050565b6000602082019050818103600083015261401281613fd6565b9050919050565b7f50726f706f73616c2068617320616c7265616479206265656e207375626d697460008201527f7465640000000000000000000000000000000000000000000000000000000000602082015250565b6000614075602383613ab6565b915061408082614019565b604082019050919050565b600060208201905081810360008301526140a481614068565b9050919050565b7f556e6578706563746564207175657374696f6e20696400000000000000000000600082015250565b60006140e1601683613ab6565b91506140ec826140ab565b602082019050919050565b60006020820190508181036000830152614110816140d4565b9050919050565b600081905092915050565b600061412d82613aab565b6141378185614117565b9350614147818560208601613ac7565b80840191505092915050565b600061415f8284614122565b915081905092915050565b7f4e6f207175657374696f6e2069642073657420666f722070726f76696465642060008201527f70726f706f73616c000000000000000000000000000000000000000000000000602082015250565b60006141c6602883613ab6565b91506141d18261416a565b604082019050919050565b600060208201905081810360008301526141f5816141b9565b9050919050565b7f50726f706f73616c20686173206265656e20696e76616c696461746564000000600082015250565b6000614232601d83613ab6565b915061423d826141fc565b602082019050919050565b6000602082019050818103600083015261426181614225565b9050919050565b7f4e487b7100000000000000000000000000000000000000000000000000000000600052603260045260246000fd5b7f556e6578706563746564207472616e73616374696f6e20686173680000000000600082015250565b60006142cd601b83613ab6565b91506142d882614297565b602082019050919050565b600060208201905081810360008301526142fc816142c0565b9050919050565b7f5472616e73616374696f6e20776173206e6f7420617070726f76656400000000600082015250565b6000614339601c83613ab6565b915061434482614303565b602082019050919050565b600060208201905081810360008301526143688161432c565b9050919050565b60008151905061437e81613561565b92915050565b60006020828403121561439a5761439961327e565b5b60006143a88482850161436f565b91505092915050565b7f426f6e64206f6e207175657374696f6e206e6f74206869676820656e6f756768600082015250565b60006143e7602083613ab6565b91506143f2826143b1565b602082019050919050565b60006020820190508181036000830152614416816143da565b9050919050565b60008151905061442c81613838565b92915050565b6000602082840312156144485761444761327e565b5b60006144568482850161441d565b91505092915050565b7f4e487b7100000000000000000000000000000000000000000000000000000000600052601160045260246000fd5b600061449982613557565b91506144a483613557565b92508282019050808211156144bc576144bb61445f565b5b92915050565b7f5761697420666f72206164646974696f6e616c20636f6f6c646f776e00000000600082015250565b60006144f8601c83613ab6565b9150614503826144c2565b602082019050919050565b60006020820190508181036000830152614527816144eb565b9050919050565b7f416e737765722068617320657870697265640000000000000000000000000000600082015250565b6000614564601283613ab6565b915061456f8261452e565b602082019050919050565b6000602082019050818103600083015261459381614557565b9050919050565b60006145a582613557565b91506145b083613557565b92508282039050818111156145c8576145c761445f565b5b92915050565b7f50726576696f7573207472616e73616374696f6e206e6f74206578656375746560008201527f6420796574000000000000000000000000000000000000000000000000000000602082015250565b600061462a602583613ab6565b9150614635826145ce565b604082019050919050565b600060208201905081810360008301526146598161461d565b9050919050565b7f43616e6e6f742065786563757465207472616e73616374696f6e20616761696e600082015250565b6000614696602083613ab6565b91506146a182614660565b602082019050919050565b600060208201905081810360008301526146c581614689565b9050919050565b7f4d6f64756c65207472616e73616374696f6e206661696c656400000000000000600082015250565b6000614702601983613ab6565b915061470d826146cc565b602082019050919050565b60006020820190508181036000830152614731816146f5565b9050919050565b600060608201905081810360008301526147528186613af1565b9050614761602083018561380e565b61476e6040830184613a09565b949350505050565b6000614781826137d4565b915061478c836137d4565b9250828203905063ffffffff8111156147a8576147a761445f565b5b92915050565b7f5468657265206e65656420746f206265206174206c656173742036307320626560008201527f747765656e20656e64206f6620636f6f6c646f776e20616e642065787069726160208201527f74696f6e00000000000000000000000000000000000000000000000000000000604082015250565b6000614830604483613ab6565b915061483b826147ae565b606082019050919050565b6000602082019050818103600083015261485f81614823565b9050919050565b600081519050919050565b600081905092915050565b6000819050602082019050919050565b6148958161348a565b82525050565b60006148a7838361488c565b60208301905092915050565b6000602082019050919050565b60006148cb82614866565b6148d58185614871565b93506148e08361487c565b8060005b838110156149115781516148f8888261489b565b9750614903836148b3565b9250506001810190506148e4565b5085935050505092915050565b600061492a82846148c0565b915081905092915050565b60007fffffff000000000000000000000000000000000000000000000000000000000082169050919050565b6000819050919050565b61497c61497782614935565b614961565b82525050565b600061498e8286614122565b915061499a828561496b565b6003820191506149aa8284614122565b9150819050949350505050565b60006149c282613d54565b9050919050565b6149d2816149b7565b82525050565b60006060820190506149ed600083018661380e565b6149fa6020830185613a09565b614a0760408301846149c9565b949350505050565b7f4e487b7100000000000000000000000000000000000000000000000000000000600052602160045260246000fd5b60028110614a4f57614a4e614a0f565b5b50565b6000819050614a6082614a3e565b919050565b6000614a7082614a52565b9050919050565b614a8081614a65565b82525050565b600060c082019050614a9b600083018961380e565b614aa86020830188613c66565b614ab56040830187613a09565b614ac2606083018661380e565b614acf6080830185614a77565b614adc60a0830184613a09565b979650505050505050565b60007fff0000000000000000000000000000000000000000000000000000000000000082169050919050565b6000819050919050565b614b2e614b2982614ae7565b614b13565b82525050565b6000819050919050565b614b4f614b4a8261348a565b614b34565b82525050565b6000614b618287614b1d565b600182019150614b718286614b1d565b600182019150614b818285614b3e565b602082019150614b918284614b3e565b60208201915081905095945050505050565b7f54696d656f75742068617320746f206265206772656174657220300000000000600082015250565b6000614bd9601b83613ab6565b9150614be482614ba3565b602082019050919050565b60006020820190508181036000830152614c0881614bcc565b9050919050565b7f74696d656f7574206d757374206265206c657373207468616e2033363520646160008201527f7973000000000000000000000000000000000000000000000000000000000000602082015250565b6000614c6b602283613ab6565b9150614c7682614c0f565b604082019050919050565b60006020820190508181036000830152614c9a81614c5e565b9050919050565b6000614cac82613288565b9050919050565b614cbc81614ca1565b8114614cc757600080fd5b50565b600081519050614cd981614cb3565b92915050565b600081519050614cee81613ccf565b92915050565b6000806000806000806000806000806101408b8d031215614d1857614d1761327e565b5b6000614d268d828e01614cca565b9a50506020614d378d828e01614cca565b9950506040614d488d828e01614cca565b9850506060614d598d828e01614cdf565b9750506080614d6a8d828e0161441d565b96505060a0614d7b8d828e0161441d565b95505060c0614d8c8d828e0161441d565b94505060e0614d9d8d828e0161436f565b935050610100614daf8d828e0161436f565b925050610120614dc18d828e01614cca565b9150509295989b9194979a5092959850565b7f4176617461722063616e206e6f74206265207a65726f20616464726573730000600082015250565b6000614e09601e83613ab6565b9150614e1482614dd3565b602082019050919050565b60006020820190508181036000830152614e3881614dfc565b9050919050565b7f5461726765742063616e206e6f74206265207a65726f20616464726573730000600082015250565b6000614e75601e83613ab6565b9150614e8082614e3f565b602082019050919050565b60006020820190508181036000830152614ea481614e68565b9050919050565b6000819050919050565b614ec6614ec182613557565b614eab565b82525050565b60008160e01b9050919050565b6000614ee482614ecc565b9050919050565b614efc614ef7826137d4565b614ed9565b82525050565b6000614f0e8286614eb5565b602082019150614f1e8285614eeb565b600482019150614f2e8284614122565b9150819050949350505050565b60008160601b9050919050565b6000614f5382614f3b565b9050919050565b6000614f6582614f48565b9050919050565b614f7d614f78826132a8565b614f5a565b82525050565b614f94614f8f82613d66565b614f5a565b82525050565b614fab614fa6826149b7565b614f5a565b82525050565b6000614fbd828a614b3e565b602082019150614fcd8289614f6c565b601482019150614fdd8288614eeb565b600482019150614fed8287614eb5565b602082019150614ffd8286614f83565b60148201915061500d8285614f9a565b60148201915061501d8284614eb5565b60208201915081905098975050505050505050565b60007fffffffff0000000000000000000000000000000000000000000000000000000082169050919050565b61506781615032565b82525050565b6000602082019050615082600083018461505e565b92915050565b61509181613c30565b811461509c57600080fd5b50565b6000815190506150ae81615088565b92915050565b6000602082840312156150ca576150c961327e565b5b60006150d88482850161509f565b91505092915050565b7f477561726420646f6573206e6f7420696d706c656d656e742049455243313635600082015250565b6000615117602083613ab6565b9150615122826150e1565b602082019050919050565b600060208201905081810360008301526151468161510a565b9050919050565b7f416e7377657273206172652076616c696420666f726576657200000000000000600082015250565b6000615183601983613ab6565b915061518e8261514d565b602082019050919050565b600060208201905081810360008301526151b281615176565b9050919050565b7f50726f706f73616c20697320616c726561647920696e76616c69646174656400600082015250565b60006151ef601f83613ab6565b91506151fa826151b9565b602082019050919050565b6000602082019050818103600083015261521e816151e2565b9050919050565b7f4f6e6c7920706f73697469766520616e73776572732063616e20657870697265600082015250565b600061525b602083613ab6565b915061526682615225565b602082019050919050565b6000602082019050818103600083015261528a8161524e565b9050919050565b7f416e7377657220686173206e6f74206578706972656420796574000000000000600082015250565b60006152c7601a83613ab6565b91506152d282615291565b602082019050919050565b600060208201905081810360008301526152f6816152ba565b9050919050565b7f4f776e61626c653a206e6577206f776e657220697320746865207a65726f206160008201527f6464726573730000000000000000000000000000000000000000000000000000602082015250565b6000615359602683613ab6565b9150615364826152fd565b604082019050919050565b600060208201905081810360008301526153888161534c565b9050919050565b6000819050919050565b60006153b46153af6153aa8461538f565b613d28565b6137d4565b9050919050565b6153c481615399565b82525050565b600060e0820190506153df600083018a613a09565b81810360208301526153f18189613af1565b90506154006040830188613c66565b61540d60608301876137e4565b61541a60808301866153bb565b61542760a0830185613a09565b61543460c0830184613a09565b98975050505050505050565b600061545b6154566154518461538f565b613d28565b613557565b9050919050565b61546b81615440565b82525050565b61547a81614ca1565b82525050565b600061016082019050615496600083018e613c66565b6154a3602083018d613a09565b81810360408301526154b5818c613b95565b90506154c4606083018b614a77565b6154d1608083018a615462565b6154de60a0830189615462565b6154eb60c0830188615462565b6154f860e0830187613c66565b615506610100830186615471565b8181036101208301526155198185613b95565b9050615529610140830184613c66565b9c9b505050505050505050505050565b600060808201905061554e6000830187613c66565b61555b6020830186613a09565b818103604083015261556d8185613b95565b905061557c6060830184614a77565b95945050505050565b600060408201905061559a600083018561380e565b6155a76020830184613c3c565b9392505050565b60006155b982613557565b91506155c483613557565b92508282026155d281613557565b915082820484148315176155e9576155e861445f565b5b5092915050565b600060ff82169050919050565b7f4e487b7100000000000000000000000000000000000000000000000000000000600052601260045260246000fd5b6000615637826155f0565b9150615642836155f0565b925082615652576156516155fd565b5b828204905092915050565b6000615668826155f0565b9150615673836155f0565b925082615683576156826155fd565b5b828206905092915050565b600061569982613557565b91507fffffffffffffffffffffffffffffffffffffffffffffffffffffffffffffffff82036156cb576156ca61445f565b5b600182019050919050565b7f496e697469616c697a61626c653a20636f6e747261637420697320616c72656160008201527f647920696e697469616c697a6564000000000000000000000000000000000000602082015250565b6000615732602e83613ab6565b915061573d826156d6565b604082019050919050565b6000602082019050818103600083015261576181615725565b9050919050565b6000615773826155f0565b915061577e836155f0565b9250828201905060ff8111156157975761579661445f565b5b9291505056fea26469706673582212204fdb454b84c907185395aadeb5956a8ac23e72da3c98fa9003e1bd7b7393c56564736f6c63430008110033",
  "devdoc": {
    "kind": "dev",
    "methods": {
      "addProposal(string,bytes32[])": {
        "details": "Function to add a proposal that should be considered for execution",
        "params": {
          "proposalId": "Id that should identify the proposal uniquely",
          "txHashes": "EIP-712 hashes of the transactions that should be executed"
        }
      },
      "addProposalWithNonce(string,bytes32[],uint256)": {
        "details": "Function to add a proposal that should be considered for execution",
        "params": {
          "nonce": "Nonce that should be used when asking the question on the oracle",
          "proposalId": "Id that should identify the proposal uniquely",
          "txHashes": "EIP-712 hashes of the transactions that should be executed"
        }
      },
      "buildQuestion(string,bytes32[])": {
        "details": "Build the question by combining the proposalId and the hex string of the hash of the txHashes",
        "params": {
          "proposalId": "Id of the proposal that proposes to execute the transactions represented by the txHashes",
          "txHashes": "EIP-712 Hashes of the transactions that should be executed"
        }
      },
      "constructor": {
        "params": {
          "_avatar": "Address of the avatar (e.g. a Safe)",
          "_oracle": "Address of the oracle (e.g. Realitio)",
          "_owner": "Address of the owner",
          "_target": "Address of the contract that will call exec function",
          "arbitrator": "Address of the arbitrator that will secure the oracle resolution",
          "bond": "Minimum bond that is required for an answer to be accepted",
          "cooldown": "Cooldown in seconds that should be required after a oracle provided answer",
          "expiration": "Duration that a positive answer of the oracle is valid in seconds (or 0 if valid forever)",
          "templateId": "ID of the template that should be used for proposal questions (see https://github.com/realitio/realitio-dapp#structuring-and-fetching-information)",
          "timeout": "Timeout in seconds that should be required for the oracle"
        }
      },
      "executeProposal(string,bytes32[],address,uint256,bytes,uint8)": {
        "details": "Executes the transactions of a proposal via the target if accepted",
        "params": {
          "data": "Data of the transaction that should be executed",
          "operation": "Operation (Call or Delegatecall) of the transaction that should be executed",
          "proposalId": "Id that should identify the proposal uniquely",
          "to": "Target of the transaction that should be executed",
          "txHashes": "EIP-712 hashes of the transactions that should be executed",
          "value": "Wei value of the transaction that should be executed"
        }
      },
      "executeProposalWithIndex(string,bytes32[],address,uint256,bytes,uint8,uint256)": {
        "details": "Executes the transactions of a proposal via the target if accepted",
        "params": {
          "data": "Data of the transaction that should be executed",
          "operation": "Operation (Call or Delegatecall) of the transaction that should be executed",
          "proposalId": "Id that should identify the proposal uniquely",
          "to": "Target of the transaction that should be executed",
          "txHashes": "EIP-712 hashes of the transactions that should be executed",
          "txIndex": "Index of the transaction hash in txHashes. This is used as the nonce for the transaction, to make the tx hash unique",
          "value": "Wei value of the transaction that should be executed"
        }
      },
      "generateTransactionHashData(address,uint256,bytes,uint8,uint256)": {
        "details": "Generates the data for the module transaction hash (required for signing)"
      },
      "getChainId()": {
        "details": "Returns the chain id used by this contract."
      },
      "getQuestionId(string,uint256)": {
        "details": "Generate the question id."
      },
      "markProposalAsInvalid(string,bytes32[])": {
        "details": "Marks a proposal as invalid, preventing execution of the connected transactions",
        "params": {
          "proposalId": "Id that should identify the proposal uniquely",
          "txHashes": "EIP-712 hashes of the transactions that should be executed"
        }
      },
      "markProposalAsInvalidByHash(bytes32)": {
        "details": "Marks a question hash as invalid, preventing execution of the connected transactions",
        "params": {
          "questionHash": "Question hash calculated based on the proposal id and txHashes"
        }
      },
      "markProposalWithExpiredAnswerAsInvalid(bytes32)": {
        "details": "Marks a proposal with an expired answer as invalid, preventing execution of the connected transactions",
        "params": {
          "questionHash": "Question hash calculated based on the proposal id and txHashes"
        }
      },
      "owner()": {
        "details": "Returns the address of the current owner."
      },
      "renounceOwnership()": {
        "details": "Leaves the contract without owner. It will not be possible to call `onlyOwner` functions anymore. Can only be called by the current owner. NOTE: Renouncing ownership will leave the contract without an owner, thereby removing any functionality that is only available to the owner."
      },
      "setAnswerExpiration(uint32)": {
        "details": "Sets the duration for which a positive answer is valid",
        "params": {
          "expiration": "Duration that a positive answer of the oracle is valid, in seconds (or 0 if valid forever)"
        }
      },
      "setArbitrator(address)": {
        "details": "Sets the question arbitrator that will be used for future questions",
        "params": {
          "arbitrator": "Address of the arbitrator"
        }
      },
      "setAvatar(address)": {
        "details": "Sets the avatar to a new avatar (`newAvatar`)."
      },
      "setGuard(address)": {
        "details": "Set a guard that checks transactions before execution",
        "params": {
          "_guard": "The address of the guard to be used or the 0 address to disable the guard"
        }
      },
      "setMinimumBond(uint256)": {
        "details": "Sets the minimum bond that is required for an answer to be accepted",
        "params": {
          "bond": "Minimum bond that is required for an answer to be accepted"
        }
      },
      "setOracle(address)": {
        "details": "Sets the `oracle` address",
        "params": {
          "_oracle": "Address to be used as the oracle for this module"
        }
      },
      "setQuestionCooldown(uint32)": {
        "details": "Sets the cooldown before an answer is usable",
        "params": {
          "cooldown": "Cooldown, in seconds, that should be required after a oracle provided answer"
        }
      },
      "setQuestionTimeout(uint32)": {
        "details": "Sets the question timeout",
        "params": {
          "timeout": "Timeout, in seconds, between when an answer is set and when it is final"
        }
      },
      "setTarget(address)": {
        "details": "Sets the target to a new target (`newTarget`)."
      },
      "setTemplate(uint256)": {
        "details": "Sets the template that should be used for future questions",
        "params": {
          "templateId": "ID of the template that should be used for proposal questions"
        }
      },
      "transferOwnership(address)": {
        "details": "Transfers ownership of the contract to a new account (`newOwner`). Can only be called by the current owner."
      }
    },
    "version": 1
  },
  "userdoc": {
    "kind": "user",
    "methods": {
      "addProposal(string,bytes32[])": {
        "notice": "The nonce used for the question by this function is always `0`"
      },
      "constructor": {
        "notice": "There need to be at least 60 seconds between end of cooldown and expiration"
      },
      "executeProposal(string,bytes32[],address,uint256,bytes,uint8)": {
        "notice": "The txIndex used by this function is always `0`"
      },
      "getQuestionId(string,uint256)": {
        "notice": "It is required that this is the same as for the oracle implementation used."
      },
      "markProposalAsInvalid(string,bytes32[])": {
        "notice": "This can only be called by the owner"
      },
      "markProposalAsInvalidByHash(bytes32)": {
        "notice": "This can only be called by the owner"
      },
      "setAnswerExpiration(uint32)": {
        "notice": "A proposal with an expired answer is the same as a proposal that has been marked invalidThere need to be at least 60 seconds between end of cooldown and expirationThis can only be called by the `owner`"
      },
      "setArbitrator(address)": {
        "notice": "This can only be called by the `owner`"
      },
      "setAvatar(address)": {
        "notice": "Can only be called by the current owner."
      },
      "setMinimumBond(uint256)": {
        "notice": "This can only be called by the `owner`"
      },
      "setOracle(address)": {
        "notice": "This can only be called by the `owner`"
      },
      "setQuestionCooldown(uint32)": {
        "notice": "This can only be called by the `owner`There need to be at least 60 seconds between end of cooldown and expiration"
      },
      "setQuestionTimeout(uint32)": {
        "notice": "This can only be called by the `owner`Timeout must be greater than `0`"
      },
      "setTarget(address)": {
        "notice": "Can only be called by the current owner."
      },
      "setTemplate(uint256)": {
        "notice": "Check https://github.com/realitio/realitio-dapp#structuring-and-fetching-information for more informationThis can only be called by the `owner`"
      }
    },
    "version": 1
  },
  "storageLayout": {
    "storage": [
      {
        "astId": 825,
        "contract": "contracts/zodiac/RealityModuleETH.sol:RealityModuleETH",
        "label": "_initialized",
        "offset": 0,
        "slot": "0",
        "type": "t_bool"
      },
      {
        "astId": 828,
        "contract": "contracts/zodiac/RealityModuleETH.sol:RealityModuleETH",
        "label": "_initializing",
        "offset": 1,
        "slot": "0",
        "type": "t_bool"
      },
      {
        "astId": 908,
        "contract": "contracts/zodiac/RealityModuleETH.sol:RealityModuleETH",
        "label": "__gap",
        "offset": 0,
        "slot": "1",
        "type": "t_array(t_uint256)50_storage"
      },
      {
        "astId": 705,
        "contract": "contracts/zodiac/RealityModuleETH.sol:RealityModuleETH",
        "label": "_owner",
        "offset": 0,
        "slot": "51",
        "type": "t_address"
      },
      {
        "astId": 818,
        "contract": "contracts/zodiac/RealityModuleETH.sol:RealityModuleETH",
        "label": "__gap",
        "offset": 0,
        "slot": "52",
        "type": "t_array(t_uint256)49_storage"
      },
      {
        "astId": 361,
        "contract": "contracts/zodiac/RealityModuleETH.sol:RealityModuleETH",
        "label": "guard",
        "offset": 0,
        "slot": "101",
        "type": "t_address"
      },
      {
        "astId": 44,
        "contract": "contracts/zodiac/RealityModuleETH.sol:RealityModuleETH",
        "label": "avatar",
        "offset": 0,
        "slot": "102",
        "type": "t_address"
      },
      {
        "astId": 47,
        "contract": "contracts/zodiac/RealityModuleETH.sol:RealityModuleETH",
        "label": "target",
        "offset": 0,
        "slot": "103",
        "type": "t_address"
      },
      {
        "astId": 3658,
        "contract": "contracts/zodiac/RealityModuleETH.sol:RealityModuleETH",
        "label": "oracle",
        "offset": 0,
        "slot": "104",
        "type": "t_contract(RealitioV3)3504"
      },
      {
        "astId": 3660,
        "contract": "contracts/zodiac/RealityModuleETH.sol:RealityModuleETH",
        "label": "template",
        "offset": 0,
        "slot": "105",
        "type": "t_uint256"
      },
      {
        "astId": 3662,
        "contract": "contracts/zodiac/RealityModuleETH.sol:RealityModuleETH",
        "label": "questionTimeout",
        "offset": 0,
        "slot": "106",
        "type": "t_uint32"
      },
      {
        "astId": 3664,
        "contract": "contracts/zodiac/RealityModuleETH.sol:RealityModuleETH",
        "label": "questionCooldown",
        "offset": 4,
        "slot": "106",
        "type": "t_uint32"
      },
      {
        "astId": 3666,
        "contract": "contracts/zodiac/RealityModuleETH.sol:RealityModuleETH",
        "label": "answerExpiration",
        "offset": 8,
        "slot": "106",
        "type": "t_uint32"
      },
      {
        "astId": 3668,
        "contract": "contracts/zodiac/RealityModuleETH.sol:RealityModuleETH",
        "label": "questionArbitrator",
        "offset": 12,
        "slot": "106",
        "type": "t_address"
      },
      {
        "astId": 3670,
        "contract": "contracts/zodiac/RealityModuleETH.sol:RealityModuleETH",
        "label": "minimumBond",
        "offset": 0,
        "slot": "107",
        "type": "t_uint256"
      },
      {
        "astId": 3674,
        "contract": "contracts/zodiac/RealityModuleETH.sol:RealityModuleETH",
        "label": "questionIds",
        "offset": 0,
        "slot": "108",
        "type": "t_mapping(t_bytes32,t_bytes32)"
      },
      {
        "astId": 3680,
        "contract": "contracts/zodiac/RealityModuleETH.sol:RealityModuleETH",
        "label": "executedProposalTransactions",
        "offset": 0,
        "slot": "109",
        "type": "t_mapping(t_bytes32,t_mapping(t_bytes32,t_bool))"
      }
    ],
    "types": {
      "t_address": {
        "encoding": "inplace",
        "label": "address",
        "numberOfBytes": "20"
      },
      "t_array(t_uint256)49_storage": {
        "base": "t_uint256",
        "encoding": "inplace",
        "label": "uint256[49]",
        "numberOfBytes": "1568"
      },
      "t_array(t_uint256)50_storage": {
        "base": "t_uint256",
        "encoding": "inplace",
        "label": "uint256[50]",
        "numberOfBytes": "1600"
      },
      "t_bool": {
        "encoding": "inplace",
        "label": "bool",
        "numberOfBytes": "1"
      },
      "t_bytes32": {
        "encoding": "inplace",
        "label": "bytes32",
        "numberOfBytes": "32"
      },
      "t_contract(RealitioV3)3504": {
        "encoding": "inplace",
        "label": "contract RealitioV3",
        "numberOfBytes": "20"
      },
      "t_mapping(t_bytes32,t_bool)": {
        "encoding": "mapping",
        "key": "t_bytes32",
        "label": "mapping(bytes32 => bool)",
        "numberOfBytes": "32",
        "value": "t_bool"
      },
      "t_mapping(t_bytes32,t_bytes32)": {
        "encoding": "mapping",
        "key": "t_bytes32",
        "label": "mapping(bytes32 => bytes32)",
        "numberOfBytes": "32",
        "value": "t_bytes32"
      },
      "t_mapping(t_bytes32,t_mapping(t_bytes32,t_bool))": {
        "encoding": "mapping",
        "key": "t_bytes32",
        "label": "mapping(bytes32 => mapping(bytes32 => bool))",
        "numberOfBytes": "32",
        "value": "t_mapping(t_bytes32,t_bool)"
      },
      "t_uint256": {
        "encoding": "inplace",
        "label": "uint256",
        "numberOfBytes": "32"
      },
      "t_uint32": {
        "encoding": "inplace",
        "label": "uint32",
        "numberOfBytes": "4"
      }
    }
  }
}